:020000040800F2
:10000000700B0020ED010008974D0008453F0008E7
:10001000954D0008650C00082D66000800000000E2
:100020000000000000000000000000004D54000827
:100030004F0D000800000000DD4F00088157000848
:10004000070200080702000807020008070200086C
:10005000070200080702000807020008070200085C
:10006000070200080702000807020008890C0008C0
:10007000950C0008A10C0008070200080702000800
:10008000070200080000000007020008070200083D
:10009000070200080702000807020008070200081C
:1000A000070200080702000807020008070200080C
:1000B00007020008F95700080D5800080702000859
:1000C00007020008070200080702000807020008EC
:1000D00007020008E564000807020008070200089C
:1000E00007020008070200080702000807020008CC
:1000F00007020008070200080702000800000000CD
:1001000000000000070200080000000007020008CD
:1001100007020008000000000702000807020008AC
:10012000070200080702000807020008070200088B
:10013000070200080000000000000000070200089D
:10014000070200080702000800000000000000008D
:10015000000000000000000000000000000000009F
:10016000000000000000000000000000070200087E
:10017000070200080000000000000000000000006E
:10018000000000000702000800000000000000005E
:10019000000000000000000000000000000000005F
:1001A000000000000000000007020008070200082D
:1001B000070200080702000807020008000000000C
:1001C000000000000702000800000000000000001E
:1001D0000702000807020008DFF80CD000F09EFBC1
:1001E00000480047E56F0008700B00200648804774
:1001F00006480047FEE7FEE7FEE7FEE7FEE7FEE70C
:10020000FEE7FEE7FEE7FEE7E9570008D901000830
:100210002DE9F05F0546002092469B46884606463B
:10022000814640241BE0284641464746224600F0CE
:10023000A6FA53465A46C01A914110D311461846A1
:10024000224600F08DFA2D1A67EB01084F46224630
:100250000120002100F084FA17EB00094E41201E16
:10026000A4F10104DFDC484631462A464346BDE896
:10027000F09FD2B201E000F8012B491EFBD270477B
:100280000022F6E710B513460A4604461946FFF762
:10029000F0FF204610BD2DE9FE4F804681EA0300A5
:1002A000C00F0C46009021F0004123F00045B8EB50
:1002B0000200A94105D24046214690461C460B4605
:1002C000024623F00040104347D0270DC7F30A0031
:1002D000C3F30A510290401A019040286BDAC3F32D
:1002E000130040F4801B0098924620B10023D2EB0B
:1002F000030A63EB0B0B01985946C0F140025046CC
:1003000000F02EFA06460D4650465946019A00F076
:1003100046FA10EB08006141002487EA115284EA92
:10032000E7731A4340D0009A62B3019A012A4FEA58
:10033000075215DC001B61EB02014FF0004202EA9C
:100340000752CDE90042001C41F5801132462B4690
:1003500000F07DFA03B0BDE8F08F40462146F9E792
:10036000001B61EB0201001C41F5801300185B418A
:100370002018A2F5001747EB030140EAD570B61923
:100380006D4111E06D084FEA360645EAC0754FEA47
:100390000752001B61EB0201001C41F58011490866
:1003A0004FEA30000019514132462B4603B0BDE8F8
:1003B000F04F00F03DBA0098012240000023D0EB3E
:1003C000020263EBE073009821464FEAE074B8EB59
:1003D000000061EB0401E9E783F000435BE781F093
:1003E000004158E72DE9FE4F81EA030404F0004480
:1003F00021F0004100944FF0000B23F0004350EA3D
:1004000001045ED052EA03045BD0C3F30A54C1F383
:100410000A552C44A4F2F3340194A0FB0254C1F316
:10042000130141F48011C3F3130343F4801301FB60
:10043000024400FB034E840A970A44EA815447EAC7
:100440008357A4FB076802958D0A05FB07854FEAD1
:10045000932C04FB0C542705029D4FEA065847EAEB
:100460001637B5EB08056EEB070C870E920E47EAC0
:10047000811742EA8312A7FB0201B6EB0B0164EB82
:1004800000042B0D43EA0C335E1844EB1C50DA4693
:100490005146E7FB0201C5F313044FEA0B3343EA6D
:1004A00014534FEA0432019C43EA0603A4F10C04FE
:1004B0000294009CCDE900B400F0C9F903B0BDE896
:1004C000F08F00200146F9E72DE9F04D81EA0304A1
:1004D00004F0004B21F0004514464FF0000A23F0D1
:1004E000004150EA050220D054EA01021DD0C5F3B4
:1004F0000A570246C5F31303C1F31300C1F30A56AA
:1005000040F4801543F48013A7EB0608101BD64671
:1005100008F2FD3873EB050002D308F1010801E091
:1005200092185B41B8F1000F03DA00200146BDE8E4
:10053000F08D00204FF48011064684460EE0171B14
:1005400073EB050705D3121B63EB050306434CEA67
:10055000010C49084FEA300092185B4150EA01074C
:10056000EDD152EA030012D082EA040083EA0501C9
:10057000084305D0101BAB4106D20122002306E040
:1005800000224FF0004302E06FF0010253101AEB1B
:1005900006004CEB085110EB0A0041EB0B01BDE8E3
:1005A000F04D00F045B9F0B4CA17CB0F50405140A0
:1005B000C61841F100054FEAC372314628004FF0DA
:1005C000960303D0B623F0BC00F004B930460021F6
:1005D000F9E70EB5C10F80EAE0700844CA070021B0
:1005E00040F233438DE80E000A460B4600F02FF927
:1005F00003B000BD0EB540F2334102910021CDE9B8
:1006000000110A460B4600F022F903B000BD3EB5CA
:10061000CA17CB0F002450405140C0186141DA077F
:1006200040F233430094CDE901232246234600F0F3
:100630000EF903B030BD70B5C1F30A5201F00045A8
:100640000024C1F3130140F2FF3341F480119A42B8
:1006500001DA002070BD40F233439A42A2F23342E5
:1006600003DC524200F08BF800E090402C43F1D0C4
:10067000404270BD00F0004230F000400AD0C10D91
:1006800001F56071C0F3160042EA0151C20840074B
:1006900011437047002001467047000030B5041E2A
:1006A00071F1000404DB4FF00044404264EB0101AF
:1006B000141E73F1000405DB1C464FF00043524248
:1006C00063EB04038B4208BF824230BD30B5041E89
:1006D00071F1000404DB4FF00044404264EB01017F
:1006E000141E73F1000405DB1C464FF00043524218
:1006F00063EB0403994208BF904230BD01F0004310
:1007000030B421F0004150EA010206D00A0DA2F5F2
:100710006072C1F31301002A02DC30BC0020704774
:10072000440F44EAC104C100E01830BC00EBC250E1
:1007300000F047B830B50B460146002020220124C6
:1007400009E021FA02F59D4205D303FA02F5491B9F
:1007500004FA02F52844151EA2F10102F1DC30BDB5
:10076000202A04DB203A00FA02F100207047914071
:10077000C2F1200320FA03F3194390407047202A66
:1007800004DB203A21FA02F00021704721FA02F33B
:10079000D040C2F120029140084319467047202AF8
:1007A00006DBCB17203A41FA02F043EAE07306E099
:1007B00041FA02F3D040C2F12002914008431946A9
:1007C00070470029A8BF7047401C490008BF20F0AF
:1007D0000100704710B4B0FA80FC00FA0CF050EA47
:1007E000010404BF10BC704749B1CCF1200421FAC8
:1007F00004F411FA0CF118BF012121430843A3EBC3
:100800000C01CB1D4FEA00614FEA102042BF0020CF
:1008100010BC704700EBC35010440029A4BF10BCAB
:100820007047401C490008BF20F0010010BC704711
:1008300010B5141E73F1000408DA401C41F10001E8
:1008400092185B411A4301D120F0010010BD2DE93F
:10085000F04D92469B4611B1B1FA81F202E0B0FA36
:1008600080F220329046FFF77BFF04460F4640EAB5
:100870000A0041EA0B0153465A46084313D0114679
:1008800053EA010019D0C8F140025046FFF777FF44
:1008900005460E46504659464246FFF761FF08435B
:1008A00005D0012004E020463946BDE8F08D002047
:1008B000054346EAE0762C4337430A986305E40A89
:1008C000A0EB08000022FD0A44EA47540A3002D592
:1008D00000200146E9E7010510196941DDE90845F5
:1008E00000196941BDE8F04DA2E7C1F30A52C1F316
:1008F000130140F2FF3341F480119A4202DA0020E2
:100900000146704740F233439A42A2F2334202DC7E
:100910005242FFF734BFFFF723BF0000064C074DDC
:1009200006E0E06840F0010394E8070098471034BF
:10093000AC42F6D3FFF754FC107900083079000878
:1009400010B5846AE16D11F0500F06D0E16DC90653
:1009500025D5204600F068FE10BDE06D40F4007023
:10096000E06520680168090716D503F0DFFB78B160
:100970002068C068800400280ADBE06D20F48070E5
:10098000E065E06DC00403D4E06D40F00100E06577
:10099000204600F047FE10BDC0688007EBE7616DA0
:1009A000496BBDE81040084710B5806AC16D41F041
:1009B0004001C165016E41F00401016600F034FEA2
:1009C00010BD10B5806A00F02EFE10BD70B5044653
:1009D0000068816811F0010F2DD18168174A11421A
:1009E0001AD18168D5432940491C816001F06AFB16
:1009F00006461BE0816811F0010F03D18168294090
:100A0000491C816001F05EFB801B02280ED9206822
:100A10000068C043C00709D0E06D40F01000E065F9
:100A2000206E40F001002066012070BD2068016842
:100A3000C943C907DED1002070BD00003F0000801F
:100A400070B502223249334800F044FF3048324C3E
:100A50000588258040886080FFF7CCFD9FED2F1B27
:100A600053EC112BFFF7BEFC9FED2E1B53EC112B0B
:100A7000FFF711FCFFF742FE60602846FFF7BAFD62
:100A80009FED2A1B53EC112BFFF7ACFC41EC100B34
:100A900053EC102B9FED270B51EC100BFFF714FDBF
:100AA0009FED261B53EC112BFFF796FCFFF726FE5C
:100AB00000EE100A2349002001EB8002D2ED000A6B
:100AC000F4EEC00AF1EE10FA1DD201EB8001401ED7
:100AD000D1ED000A11ED011A00EB800030EE600A42
:100AE00031EE601AC0EE010A00EE100AB1EE041AEF
:100AF000B8EEC00A00EE810ADFED130A30EE600A9C
:100B000084ED020A70BD401C2728D5DB70BD0000B3
:100B1000B2000020D0000020500700204CC3F0118C
:100B20003125823F000000000000F03FFF092E56F3
:100B3000D4604A3F48E17A14AEC7254066666666CF
:100B400066660A40747800080000204270B53E4D89
:100B50003E4C2DED068B95ED0C0B51EC100B81F0FE
:100B60000041C4E91001E86EFFF784FD94ED0E1B0F
:100B700053EC112BFFF736FC9FED351B53EC112B7B
:100B8000FFF78CFD1BD2E86EFFF774FD94ED0E1B92
:100B900053EC112BFFF726FC9FED2F1B53EC112B71
:100BA000FFF794FD0BD294ED100B53EC102B94ED4A
:100BB0000E0B51EC100BFFF76EFBC4E90E0194ED28
:100BC0000C0B94ED108B53EC102B51EC180BFFF722
:100BD00003FC41EC190B286FFFF74CFD53EC192B6C
:100BE000FFF700FC41EC190BE86EFFF743FD94EDB5
:100BF0000E1B53EC112BFFF7F5FB41EC1A0BA86E03
:100C0000FFF738FD53EC182BFFF7ECFB53EC1A2BD6
:100C1000FFF741FB53EC192BFFF73DFBFFF70BFDF3
:100C20000F494FF400729042C86002DC5242904279
:100C300000DACA60C86800F58060C86084ED0C8B7B
:100C4000BDEC068B70BD0000C006002038000020FF
:100C5000000000000000504000000000000050C0F4
:100C600018050020FEE7000010B504F085FA04F036
:100C7000EFFB04480021B0F87400BDE8104000B25A
:100C800000F034B9C0060020014800F00EBF00009B
:100C90003C010020014800F008BF0000580400207B
:100CA000014800F002BF0000B80400200D490268AE
:100CB0008A4201D20C4901E00B492031D2B21423FF
:100CC000083AB2FBF3F2436C02F01F0223F0030375
:100CD0001944816404498031C16401219140016556
:100CE0007047000008040240000802400179074AEA
:100CF00002EB81024265054A4432491E826501F0D9
:100D00001F0201219140C16570470000FC080240AC
:100D100030B5D0E913456560446D14B1D0E916458E
:100D2000656090F8444004F01F050124AC40056C58
:100D30006C60046863608368102B036803D099605B
:100D40000068C26030BD9A600068C16030BD704705
:100D500010B510220549064803F074F8BDE81040AC
:100D600021220449024803F099B8000040070020FE
:100D7000C80300209000002010B5064802F048FA91
:100D8000054802F045FA05480068016841F0100185
:100D9000016010BD98020020E4020020C80300207A
:100DA00072B6FEE7144A117F1448012901D00329C5
:100DB0000FD1036823F400730360036843F40063F6
:100DC0000360036823F400630360036843F4007363
:100DD0000360022901D003290BD1016841F480513D
:100DE0000160016821F480510160016841F4806173
:100DF00001600020107770471000002000200240A2
:100E0000C107054803D0416941F0040141614169CE
:100E100041F48031416170470020024008494A692D
:100E2000C0B222F4FC7242EAC0004861486940F056
:100E300002004861486940F4803048617047000012
:100E400000200240054910B54C6944F001044C6192
:100E50000260BFF36F8F436010BD000000200240AE
:100E6000094A10B55469402344F480245461EFF3D7
:100E7000108272B610C95B1E10C013F0FF03F9D1C7
:100E800082F3108810BD00000020024070B50646B5
:100E900001F018F90546134C07E000BF01F012F904
:100EA000401BB04201D9032070BD2069C003F5D4B6
:100EB00020694CF2FA3108400CD00B494A680243D1
:100EC0004A60810F01D0A169A161810000D0206139
:100ED000012070BD2069C00701D0012020610020E1
:100EE00070BD00000020024010000020184A30B4FD
:100EF000B2F90830D4681278234402F0030203EBFD
:100F00000222D31702EB93536FF30903114CD21A49
:100F100034F9123002F58072D51702EB95556FF354
:100F20000905521B34F8124011FB04F200FB132296
:100F3000D51702EB1552121310FB04F011FB03003E
:100F4000C11700EB1150011330BC104604F004BB74
:100F500018050020727000082DE9F041002004F00F
:100F6000C3FB114800219FED110AC160104E80EDB6
:100F7000040A0C4600F11405601C00F05DF80746F9
:100F8000204600F059F8381A80B225F81400C82815
:100F900004D900F5804025F814003480641CE4B2C4
:100FA000C82CE9D3BDE8F08118050020000000003E
:100FB00034000020174910B5002008601748164A71
:100FC0000388A3F57F44FF3C05D01804800900F195
:100FD0000063934201D93C2003E0101AA0F10060A5
:100FE000C00A88600220C860012048600C49C00324
:100FF00008610C49074800F06DFE002808D000F099
:10100000D3FE09A005F014FBBDE81040FFF7C8BEF1
:1010100010BD00005C07002000E00108E075FF1F24
:1010200000200240B8000020204572726F722E2E00
:101030002E310D0A00000000B0F5C87F0DD2002847
:1010400000DAC830C82804DBC82190FBF1F201FBAC
:101050001200024951F8300080B2704700E00108E8
:10106000A0F58061793924D0B0F5617F27D0A0F553
:101070004071853920D0A0F54071863922D0A0F585
:101080004071873921D0B0F5627F24D0A0F540713E
:1010900089391DD0A0F540718A391FD0A0F5407163
:1010A0008B391ED0B0F5637F02D10F48006880B243
:1010B00070470D484838F9E70B483838F6E70A48D2
:1010C0004038F3E708483038F0E707482838EDE7BC
:1010D00005481838EAE704482038E7E7024810389E
:1010E000E4E701480838E1E788E601082DE9F04126
:1010F0000E46804600240D4D00F0A2FEFFF75AFF79
:101100000B4F0CE0002338F814202946184600F055
:1011100059FE10B9641CA4B20835BD4201D2B442D4
:10112000F0D3BDE8F04100F03FBE000000E0010850
:10113000000002082DE9F047044690F858009CB0E2
:101140000E464FF00009012815D0012084F8580000
:1011500000251795189520684FF0A04840450ED1FE
:10116000284F0097384602F0DDFF8246206802F0E3
:10117000D9FF60B10EE002201CB0BDE8F087E06D41
:1011800040F02000E06584F858500120F4E7BAF1FF
:10119000000F09D0E06D40F02000E0654FF001093C
:1011A00084F858504846E7E71748326840F61F7100
:1011B000002A826822F4604216D094F8383042EA5D
:1011C000433273681A438260D8F80820BB6802F083
:1011D000010203F001031A43E2D1B36832681A43F3
:1011E00083688B431A430BE08260D8F80820BB6801
:1011F00002F0010203F001031A43D1D182688A434D
:101200008260CDE700010050000300502DE9F84F47
:1012100000270446009790F85800DFF8D8930D4651
:10122000B846012811D0012684F85860206802F0E1
:1012300075FF60B1E06D40F02000E0655FF00107F0
:1012400084F858803846BDE8F88F0220FBE7D5E9DE
:1012500000210C23206803EA91131844036B01F06A
:101260001F014FF01F0C0CFA01FCC2F3846223EA49
:101270000C038A4013430363206802F04FFF824649
:10128000206802F047FF5AEA00003CD1AA682968AA
:101290002068B2F1004F37D002F050FF206841695A
:1012A00021F00041416120686969C268C2F3C1024E
:1012B000520091402A69042A31D000EB82002B6849
:1012C000026EDFF834C303F0F84302EA0C020B436A
:1012D0001A4342F00041016620682A69A96900EBBF
:1012E0008200026E22F080720A430266297F226821
:1012F0002869012910D0002102EB8000026E22F043
:1013000000720A4302667DE0002202F017FF2068A7
:10131000416941F00041C5E74FF00071ECE7002161
:1013200002F0F2FE400320684FF0000172D002F09C
:10133000EBFE90FAA0F0B0FA80F1286842036ED07C
:1013400090FAA0F0B0FA80F0814204D10022114658
:10135000206802F002FF0121206802F0D5FE400360
:1013600020684FF001015DD002F0CEFE90FAA0F0AF
:10137000B0FA80F12868420359D090FAA0F0B0FA90
:1013800080F0814204D100220121206802F0E5FEB4
:101390000221206802F0B8FE400320684FF00201ED
:1013A00048D002F0B1FE90FAA0F0B0FA80F12868BF
:1013B000420344D090FAA0F0B0FA80F0814204D108
:1013C00000220221206802F0C8FE0321206802F0FA
:1013D0009BFE400320684FF0030133D002F094FEDF
:1013E00090FAA0F0B0FA80F1286842032FD090FA6A
:1013F000A0F0B0FA80F0814204D1002203212068DD
:1014000002F0ABFE2068816811F0010F22D0A8E045
:1014100000E004E002F078FEC0F384618DE7C0F3E1
:10142000846091E702F070FEC0F38461A2E7C0F32C
:101430008460A6E702F068FEC0F38461B7E7C0F3FA
:101440008460BBE702F060FEC0F38461CCE7C0F3C8
:101450008460D0E7EB6829684B4550F8B03FC1F392
:10146000120101D10B4300E08B430360E86848455B
:1014700077D1286841031CD090FAA0F1B1FA81F12C
:10148000491C01F01F0109294FEA403132D80029D7
:1014900012D000BF90FAA0F1B1FA81F101F101017F
:1014A00001F01F0106FA01F609D100BFC0F3846103
:1014B00009E0C0F38461E3E7C0F38461EEE790FAEA
:1014C000A0F1B1FA81F101F1010101F01F0146EA39
:1014D000816102D1C0F3846003E090FAA0F0B0FA19
:1014E00080F000F1010000F01F0000EB400041EA35
:1014F000005132E000290ED090FAA0F1B1FA81F14A
:1015000001F1010101F01F0106FA01F606D100BF49
:10151000C0F3846106E0C0F38461F1E790FAA0F1C2
:10152000B1FA81F101F1010101F01F0146EA816187
:1015300002D1C0F3846003E090FAA0F0B0FA80F02A
:1015400000F1010000F01F002C4A00EB400002EB0C
:10155000005041EA000141F00071AA68206802F0E1
:10156000EDFD27482A6802423FF46AAE25488168AB
:10157000254B01F0E0719A4202D0244B9A421CD1D3
:101580000B021AD42268B2F1A04F7FF459AE8268E0
:1015900041F4000122F0E0720A4382601C481D49B8
:1015A0000068B0FBF1F0401C00EB4000800000E060
:1015B000401E00900028FBD142E6174D174BAA426F
:1015C00007D1CD0105D422689A42F5D041F080714F
:1015D00009E0134DAA42EFD14A02EDD422689A42A3
:1015E000EAD041F48001826822F0E0720A4382600E
:1015F00026E6000000007F4000F0FF03000020FE10
:101600000000088000030050000021C31000C090BB
:1016100030000020400D0300000052C700010050C0
:10162000000084CB7047704770470000F8B54FF05A
:10163000000504002E46009502D0E06D10B107E0D1
:101640000120F8BD204600F0EFF8266684F85860C7
:1016500020688168C1F3407119B181686A4A1140FC
:10166000816020688168C1F3007189B98168674A27
:10167000114041F080518160654866490068B0FBC7
:10168000F1F04000801C00E0401E00900028FBD1DB
:1016900020688168C1F3007141B9E16D41F010012A
:1016A000E165216E41F001012166012502F036FD60
:1016B000E16DC90600D430B1E06D40F01000E06586
:1016C00001252846F8BDE06D20F4807040F002004E
:1016D000E0652068806810F0010F11D14FF0A04044
:1016E00080684D4900F00100896801F0010108435C
:1016F00006D14A486168826822F47C120A438260FB
:10170000E168E06B627F0843A16841EA4231084327
:1017100094F8241040EA0140012904D1218D404A67
:1017200002EB41410843E16A29B101F47871226B6F
:10173000014342EA01002168CA683A4B1A40024359
:10174000CA6020680169626B21F040611143016148
:10175000206802F0E3FC0646206802F0DBFC304320
:101760002ED1207F94F83810800340EA410220688F
:10177000C16844F2020399431143C1602069002803
:10178000206801690AD041F480310161206850F875
:10179000C01F22696FF30D01114307E021F480316E
:1017A0000161206850F8C01F6FF30D01016094F8CB
:1017B000400001280CD02068016921F0010101617D
:1017C000606901282068016B21F00F0111D013E03E
:1017D000D4E911010843D4E91312114308432168E5
:1017E0000A6940F2FC739A43104340F0010008611B
:1017F000E6E7226A521E11430163E06D20F0020009
:1018000040F00100E0655CE7C0FFFF5FC0FFFF7FC5
:1018100030000020400D0300000100500003005084
:101820000000FEFF0740F0FF70B598B00546142198
:1018300011A8FEF725FD44216846FEF721FD286822
:10184000B0F1A04F3ED14FF40040009080030F90C4
:10185000684600F035FD08B1FFF7A2FA1A49C86CD6
:1018600040F40050C864C86C00F400501690C86C76
:1018700040F00100C864C86C002600F0010016901A
:101880000C2011900320CDE9120611A94FF09040D1
:1018900000F0EAFA0E4C0D4820600520C4E901066C
:1018A0008020C4E90360400060618000A0612020C6
:1018B000C4E90706204600F055F908B1FFF770FAB1
:1018C0006C65A56218B070BD0010024008000240AF
:1018D0003C0100202DE9F041044634481746884673
:1018E000806800F01F05206802F018FC00285AD11B
:1018F00094F85800012856D0012084F8580000269A
:1019000025B1052D02D0092D00D003E02046FFF7B8
:101910005DF818B184F85860BDE8F081E06D40F6DC
:101920000161884340F48070E06521492068884265
:1019300002D14FF0A04100E00146814200D01DB924
:10194000E06D20F48010E065E06DC00404D5206EE9
:1019500020F00600206600E02666616D1548C8622A
:10196000616D15480863616D1448486321681C2047
:10197000086084F858602068416841F010014160B7
:101980002068C16841F00101C16021683B464246C0
:101990004031606D00F046F921688A68084B1A40B2
:1019A000121D8A60B8E70220B6E70000000300506D
:1019B0000001005041090008C3090008A9090008F6
:1019C000C0FFFF7F10B590F8253000210122022BC7
:1019D00003D00421C163012122E003681C6824F0C4
:1019E0000E041C60836C1C6824F480741C60036803
:1019F0001C6824F001041C6090F84430046C03F06F
:101A00001F0302FA03F36360D0E913345C60436D93
:101A100033B11C6824F480741C60D0E916345C6017
:101A200080F82520002280F82420084610BD70B5DB
:101A300090F82520002401212346022A07D0042201
:101A4000C26380F8251080F82430012429E0026860
:101A5000156825F00E0515600268156825F001056A
:101A60001560826C156825F48075156090F8442027
:101A7000056C02F01F0201FA02F26A60D0E9132538
:101A80005560426D32B1156825F480751560D0E956
:101A90001625556080F8251080F82430816B01B13F
:101AA0008847204670BDC06B7047F0B4016C0C686D
:101AB00001680D6890F8442002F01F06042202FA23
:101AC00006F3234211D06B070FD50B689B0603D496
:101AD0000B6823F004030B6090F8441001F01F0121
:101AE0008A40016C4A60016B1DE0022303FA06F78D
:101AF00027424FF0000C4FF0010218D0AF0716D567
:101B00000C68A40605D40C6824F00A040C6080F864
:101B1000252090F8441001F01F018B40016C4B60B0
:101B200080F824C0C16A00291AD0F0BC08470823F5
:101B3000B340234214D02B0712D50B6823F00E03B9
:101B40000B6090F84410036C01F01F0102FA01F1E0
:101B50005960C26380F8252080F824C0416BE2E719
:101B6000F0BC704770B504000CD02B4A21681420DB
:101B7000914209D2294A0A44B2FBF0F08000606425
:101B800027480AE0012070BD234A52420A44B2FBB2
:101B9000F0F080006064204808382064022084F857
:101BA00025000A6847F6F0708243D4E9020318431F
:101BB000D4E904352B431843A3691843E369184358
:101BC000236A1843104308602046FFF76FF8A068A7
:101BD0000025B0F5804F00D16560A16C20790860C8
:101BE000D4E9130141606068401E032808D82046EC
:101BF000FFF77CF8606D0560D4E91601416002E0F2
:101C00006565A565E565E563012084F8250084F830
:101C10002450002070BD000008040240F8FFFDBF02
:101C20000000024070B5044690F824000025012809
:101C30000CD0012084F8240094F825600020012EA7
:101C400006D084F824000225284670BD022070BD0D
:101C5000022684F82560E0632068066826F0010605
:101C600006602046FFF754F8206B002820680168C2
:101C700002D041F00E0106E021F00401016020686D
:101C8000016841F00A010160A06C0168C90303D535
:101C9000016841F480710160606D18B1016841F420
:101CA000807101602068016841F001010160CBE7AB
:101CB00070B5044600F006FA0546601C02D00448E0
:101CC0004068044400F0FEF9401BA042FAD370BD06
:101CD000040000202DE9F05F05463148894601786F
:101CE00001290CD00126804606704FF47A7B5846B5
:101CF000FFF7CCF807004FF0000A03D04BE00220BA
:101D0000BDE8F09F51464046C8F804A0254C226823
:101D100092050AD52168490505D5216821F480611D
:101D20002160032109E0067708E02268520504D506
:101D3000216821F48061216002210177286801284F
:101D400005D04FF0FF31C9F80010AE681CE068689C
:101D5000FFF756F85846FFF799F80746606920F0F4
:101D60000400606115E030466968FFF757F858468F
:101D7000FFF78CF80700606920F4FD70606102D005
:101D8000C9F8006005E0761CD5E902010844B042BC
:101D9000E9D8FFF707F888F800A03846B0E7000058
:101DA0001000002000200240054901204A6942F04D
:101DB00000424A614969002900DA002070470000AA
:101DC000002002402DE9F0471B4D044616462878B6
:101DD00098468A46012809D0012028704FF47A7964
:101DE0004846FFF753F8002718B119E00220BDE874
:101DF000F0876F6024B1012C09D0022C07D00CE0D1
:101E0000324643465046FFF71DF801240CE03146A8
:101E10005046FFF725F8022C04D04846FFF736F865
:101E20002F70E4E74FF480244846FFF72FF803496A
:101E30004A69A2434A61F3E71000002000200240F3
:101E4000064900204A69002A07DA054A8A60054ADD
:101E50008A604969002900DA0120704700200240A9
:101E600023016745AB89EFCD2DE9F04FDFF82092D4
:101E7000002301260324A9F1040B85B00F2709F1E3
:101E8000040AABF1040EFAE006FA03F52A407CD00E
:101E900091F804C00CF0030CBCF1010F02D0BCF1AE
:101EA000020F26D1D0F808C0CDF800C04FEA430C8D
:101EB00004FA0CF8CDF810C0DDF800C02CEA080CCC
:101EC000CDF800C0D1F80C80DDF810C008FA0CF88D
:101ED000DDF800C048EA0C08C0F80880D0F804C05B
:101EE0002CEA050C0D79C5F300159D4045EA0C055B
:101EF00045600D79ED43AD070ED0C5684FEA430844
:101F000004FA08FC25EA0C05D1F808C00CFA08FC14
:101F10004CEA050CC0F80CC00D7905F00305022D44
:101F200016D1DD0800EB850CCDF808C0DCF8208068
:101F30005D074FEAD56C07FA0CF528EA05080D692C
:101F400005FA0CF5DDF808C045EA0805CCF8205084
:101F500005684FEA430CCDF808C004FA0CFC25EAEA
:101F60000C0591F804C00CF00308DDF808C008FA6D
:101F70000CF848EA0508C0F800804D6815F4403FA9
:101F80007CD0444DD5F860C000E077E04CF0010C07
:101F9000C5F860C02D6E23F0030C05F00105009517
:101FA0003D4D65440295AD684FEA837C4FEA1C784D
:101FB00007FA08FC25EA0C05B0F1904F06D0DFF8CF
:101FC000DCC0604505D14FF0010C20E04FF0000C63
:101FD0001DE0DFF8CCC0604502D14FF0020C16E0E6
:101FE000DFF8C0C0604502D14FF0030C0FE0DFF80E
:101FF000B8C0604502D14FF0040C08E0DFF8ACC077
:10200000604502D14FF0050C01E04FF0060C0CFAD0
:1020100008FC4CEA050C029DC5F808C0D9F8005030
:10202000CC46D1F8048095435FEAC82800D5154313
:10203000CCF80050DAF80050D446D1F8048095432B
:102040005FEA882800D51543CCF80050DBF8005033
:10205000DC46D1F8048095435FEA883800D5154303
:10206000CCF80050DEF80050F446D1F804809543D7
:102070005FEAC83800D51543CCF800505B1C0A68ED
:1020800032FA03F57FF400AF05B0BDE8F08F000031
:102090000804014000100240000001400004004814
:1020A00000080048000C00480010004800140048D8
:1020B0000069084000D0012070470AB18161704773
:1020C000816270470148806870470000040000206A
:1020D0000248816842681144816070470400002012
:1020E00010B50024032000F073F80F2000F008F86A
:1020F00008B1012401E000F025F8204610BD0000E1
:1021000070B50E4E05460024706898B14FF47A7190
:10211000B1FBF0F00A490968B1FBF0F000F03DFFB7
:1021200040B9102D06D200222946501E00F030F88A
:10213000356000E00124204670BD0000040000204E
:10214000300000200A4882B0016E41F001010166B2
:10215000016E01F001010091816D41F080518165B6
:10216000806D00F08050009002B000F0A1B8000037
:1021700000100240002809DB00F01F0201219140FD
:102180004009800000F1E020C0F800117047000015
:10219000F0B40E4B1B680C46C3F30223C3F10705D2
:1021A000042D00D90425191D072901D2002300E0C0
:1021B000DB1E012606FA05F1491E214099409E408A
:1021C000761E16403143F0BC04F042BA0CED00E03C
:1021D000064900F0070208684FF6FF03184040EA7E
:1021E0000220034A10430860704700000CED00E035
:1021F0000000FA052B492C4B0A6832214A432B492F
:1022000040B1B0F5007F086829D020F4C06040F4E8
:1022100080602CE00868C0F34120022804D051F807
:10222000800F20F4807022E0D1F8800020F48070CC
:10223000C1F88000086820F4C06040F400700860B5
:10224000B2FBF3F0401C00E0401E4A69520501D584
:102250000028F9D1486940050AD503207047C0F32A
:102260004120022806D051F8800F40F480700860A9
:1022700000207047D1F8800040F48070C1F88000E1
:10228000086820F4C06040F400700860B2FBF3F00E
:10229000401C00E0401E4A695205DBD50028F9D1F8
:1022A000D8E700003000002040420F0000700040DE
:1022B0000248816841F480418160704700700040AD
:1022C0002DE9F8430446006800269D4D00035ED5C5
:1022D000A86D0027C00008D4A86D40F08050A86504
:1022E000A86D012700F080500090DFF85892D9F8CF
:1022F000001041F48071C9F80010FFF7E3FE80463A
:1023000006E000BFFFF7DEFEA0EB080002282BD896
:10231000D9F80000C005F5D5D5F8900010F440704C
:1023200014D0216C814211D0D5F89000D5F89010CE
:1023300020F4407041F48031C5F89010D5F8901029
:1023400021F48031C5F89010C5F89000C00711D075
:10235000FFF7B8FE804641F2883907E0FFF7B2FE8A
:10236000A0EB0801494501D903260BE0D5F8900000
:102370008007F3D5D5F89000216C20F44070084315
:10238000C5F890001FB1A86D20F08050A865207896
:10239000C00707D0D5F88800616820F00300084323
:1023A000C5F888002078800707D5D5F88800A1688F
:1023B00020F00C000843C5F888002078400707D5B6
:1023C000D5F88800E16820F030000843C5F888009F
:1023D0002078000707D5D5F88800216920F0C000D3
:1023E0000843C5F888002078800607D5D5F888000E
:1023F000616920F440600843C5F8880020784006F1
:1024000007D5D5F88800A16920F440500843C5F8E5
:1024100088002078000607D5D5F88800E16920F407
:1024200040400843C5F888002088C00507D5D5F886
:102430008800216A20F440300843C5F888002088CD
:10244000800507D5D5F88800616A20F4402008434C
:10245000C5F88800208840050FD5D5F88800A16A06
:1024600020F440100843C5F88800A06AB0F5801F2A
:1024700003D1E86840F48010E860208800050FD59B
:10248000D5F88800E16A20F440000843C5F88800C8
:10249000E06AB0F5800F03D1E86840F48010E8608E
:1024A0002088C0040FD5D5F88800216B20F040703B
:1024B0000843C5F88800206BB0F1807F03D1E8683D
:1024C00040F48010E86020884FF0006180040ED551
:1024D000D5F88800626B20F040601043C5F8880092
:1024E000606B884203D1E86840F48010E86020887F
:1024F00040040ED5D5F88800A26B20F04060104350
:10250000C5F88800A06B884203D1E86840F48010C9
:10251000E860208800040FD5D5F88800E16B20F032
:1025200040500843C5F88800E06BB0F1805F03D1EC
:10253000E86840F48030E8603046BDE8F883000089
:1025400000100240007000402DE9F0470E460500E3
:102550004FF0000725D0DFF8AC81D8F8000000F07C
:102560000F00B0420CD2D8F8001021F00F01314317
:10257000C8F80010D8F8000000F00F00B04210D1E9
:102580002968614CC80741F2883A5AD06868DFF878
:102590007C91032808D0022820682DD0400500280F
:1025A0002CDB0120BDE8F08720688001F9D5E068C8
:1025B00000F00302E068C0F30310401C032A19D0A6
:1025C000534A00BFB2FBF0F0E268C2F30622504368
:1025D000E268C2F34162521C5200B0FBF2F048457F
:1025E00017D9A06810F0F00F0CD0880711D5A86893
:1025F00040B10EE0474AE5E78003D0E700F0B6F8C7
:10260000484506D9A06820F0F00040F08000A060A6
:102610008027A068696820F003000843A060FFF7E6
:1026200051FD814606E000BFFFF74CFDA0EB09011C
:1026300051453AD8A068696800F00C00B0EB810FF2
:10264000F2D12868810714D5400703D5A06840F46B
:10265000E060A0602878000705D5A06820F46050ED
:1026600040F4E060A060A068A96820F0F000084392
:1026700004E0802F03D1A06820F0F000A060D8F81B
:102680000010404601F00F01B14216D9016821F057
:102690000F0131430160FFF715FD074607E000BF5A
:1026A000FFF710FDC11B514501D903207AE7D8F887
:1026B000000000F00F00B042F2D12878400705D5A5
:1026C000A068E96820F4E0600843A060287800076B
:1026D00006D5A068296920F4605040EAC100A060D6
:1026E00000F044F8A1680C4AC1F30311515C01F0F9
:1026F0001F01C8400949086009480068BDE8F04763
:10270000FFF7FEBC002002400010024000B4C404E9
:102710000024F400001BB7005A70000830000020AD
:10272000040000200548064900688968054AC1F38D
:102730000221515C01F01F01C840704730000020A9
:10274000001002406A700008054806490068896860
:10275000054AC1F3C221515C01F01F01C840704716
:1027600030000020001002406A700008184910B5BF
:102770008868C0F381021748012A0BD08A68164B7B
:10278000C2F38102022A06D08A68C2F38102032AB8
:1027900003D0002010BD184610BDCA6802F0030423
:1027A000CA68C2F30312521C032C02D0B0FBF2F031
:1027B00001E0B3FBF2F0CA68C968C2F306225043D5
:1027C000C1F34161491C4900B0FBF1F010BD0000AC
:1027D000001002400024F400001BB7002DE9F8436C
:1027E00004007AD02078FA4DC00747D0A868E9687D
:1027F00000F00C0001F003010C2802D0082817D0CB
:1028000001E0032914D06068B0F5803F17D0B0F51F
:10281000A02F286817D020F480302860286820F482
:10282000802028606068E0B1FFF74CFC064614E0A9
:102830002868800322D560680028D2D01EE028686E
:1028400040F48030EDE740F480202860F7E700BFD7
:10285000FFF738FC801B642870D828688003F7D500
:102860000CE0FFF72FFC064605E000BFFFF72AFC4F
:10287000801B6428F0D828688003F7D4207880076C
:102880004CD5A868E96800F00C0001F003010C28A1
:1028900002D004280DD001E002290AD0E068002807
:1028A00028682BD040F480702860FFF70BFC0646A8
:1028B00019E02868400502D5E068002891D06868D2
:1028C000217C20F0FE4040EA01606860C148006859
:1028D000FFF716FC002800D120E076E1FFF7F2FBBD
:1028E000801B0228B8D828684005F7D56868217C85
:1028F00020F0FE4040EA016068600FE020F4807044
:102900002860FFF7DFFB064605E000BFFFF7DAFBB4
:10291000801B0228A0D828684005F7D4207800073B
:1029200029D560690028D5F8940013D040F0010043
:10293000C5F89400FFF7C6FB064606E090E000BF2E
:10294000FFF7C0FB801B022886D8D5F894008007CB
:10295000F6D510E020F00100C5F89400FFF7B2FBB7
:10296000064604E0FFF7AEFB801B022878D8D5F8B6
:1029700094008007F6D42078400761D5A86D002622
:10298000C00008D4A86D40F08050A865A86D01264D
:1029900000F08050009090480168C90511D401688A
:1029A000804641F480710160FFF78CFB074604E02C
:1029B000FFF788FBC01B022852D8D8F80000C005DA
:1029C000F6D5A068012815D00528D5F8900016D0B6
:1029D00020F00100C5F89000D5F8900020F0040028
:1029E000C5F89000A06841F28838B8B1FFF76AFBDB
:1029F00007460EE0D5F8900040F00100F0E740F007
:102A00000400C5F89000F5E7FFF75CFBC11B4145EA
:102A100026D8D5F890008007F6D50CE0FFF752FBDA
:102A2000074604E0FFF74EFBC11B414518D8D5F817
:102A300090008007F6D41EB1A86D20F08050A865E4
:102A40002078800629D5A0690028D5F8980013D0F1
:102A500040F00100C5F89800FFF734FB064606E099
:102A600077E000BFFFF72EFB801B022877D8D5F850
:102A700098008007F6D510E020F00100C5F8980016
:102A8000FFF720FB064604E0FFF71CFB801B022833
:102A900065D8D5F898008007F6D4E069F0B3A96846
:102AA000C1F38101032961D00228286820F08070D9
:102AB00028600BD0E86820F00300E860E868474928
:102AC0000840E860FFF7FEFA04464BE0FFF7FAFA29
:102AD000064604E0FFF7F6FA801B02283FD8286874
:102AE0008001F7D4F4E908016FF00F0202EB011145
:102AF0000843218A5204490802EB4151A26841EA85
:102B000002210843217D4FF07E42490802EB4161DA
:102B10000843217B40EAC160E96800E062E0304A96
:102B200011400843E860286840F080702860E86839
:102B300040F08070E860FFF7C5FA044605E000BF8A
:102B4000FFF7C0FA001B022809D828688001F7D5D2
:102B500048E004E0FFF7B6FA001B022802D9032080
:102B6000BDE8F88328688001F4D43BE00128F7D061
:102B7000E868226A00F00301914226D1616A00F000
:102B8000F0020901103991421FD1A26A00F4FE41FE
:102B9000B1EB022F19D194F82C2000F07841B1EB61
:102BA000C26F12D1218E00F4C00249084905A1F577
:102BB0000011914209D194F8341000F0C060490826
:102BC0004906A1F1007181420CD00120C8E7000044
:102BD000001002400400002000700040FFFFEEFEE5
:102BE0000C809F010020BBE770B5040009D0606A2B
:102BF000002540B125616561A56294F85D0040B192
:102C00000CE0012070BD6068B0F5827FF4D0E56112
:102C1000F2E784F85C50204600F05CF8022084F86B
:102C20005D002068016821F040010160E1684FF417
:102C3000E062914201D9002001E04FF48050B1F5EB
:102C4000706F02D0914200D0A562A188228901F460
:102C5000827102F404421143227C02F00202114309
:102C6000227D02F001021143228B02F40072114313
:102C7000227F02F03802114394F8202002F08002F3
:102C80001143228D02F40052114322681160A169A0
:102C9000042202EA114194F8242000F4805002F04A
:102CA0001002114394F8342002F008021143A28963
:102CB00002F4706211430143206841602068C169D9
:102CC00021F40061C1612566012084F85D000020C7
:102CD00070BD000010B586B0044614216846FDF7AB
:102CE000CFFA1249206888421DD11148016E41F483
:102CF00080510166016E01F480510591C16C41F073
:102D00000201C164C06C694600F0020005903820E1
:102D10000090022001900020029003900520049072
:102D20000448FFF7A1F806B010BD000000300140D4
:102D300000100240000400482DE9F05F044690F8BE
:102D40005C0000270A9E1D4692468B464FF0010903
:102D500001280ED0012084F85C00FFF7B3F980460B
:102D600094F85D00616801280CD0B1F5827F07D12D
:102D700002E00220BDE8F09FA16809B9042801D053
:102D8000022700E1BBF1000F24D0BAF1000F21D0DF
:102D900005B394F85D00042802D0052084F85D0096
:102DA00000202066C4F840A0A4F84650A4F844507F
:102DB000C4F838B0E587A587E0642065E0684FF483
:102DC000E061884201D8012D06D92068426822F4CA
:102DD000805205E00127D6E02068426842F4805224
:102DE000426020680268520603D4026842F0400242
:102DF0000260E0688842606845D908B1012D3AD187
:102E0000A06B21680088C860A06B801CA063E08F65
:102E1000401EE0872FE02068816889070FD5E18F89
:102E200069B1B9F1010F0AD1A16B0988C160A06B2A
:102E3000801CA063E08F401EE0874FF000092068EF
:102E40008168C9070FD0B4F8461061B1C068216C21
:102E50000880206C801C2064B4F84600401EA4F852
:102E600046004FF00109FFF72DF9A0EB0800B04232
:102E700001D3701C75D1E08F0028CCD1B4F8460086
:102E80000028C8D176E008B1012D6CD1E08F01286F
:102E9000A06B08D921680088C860A06B801CA06363
:102EA000E08F801E07E0216800780873A06B401C4B
:102EB000A063E08F401EE08755E0206881688907A5
:102EC0001AD5E18FC1B1B9F1010F15D1E18F0129F7
:102ED000A16B07D90988C160A06B801CA063E08F3B
:102EE000801E06E009780173A06B401CA063E08F90
:102EF000401EE0874FF0000920688168C90728D08C
:102F0000B4F8461029B3B4F84610012914D9C068A2
:102F1000216C0880206C801C2064B4F84600801E60
:102F2000A4F84600B4F84600012810D8206841688B
:102F300041F4805141600AE0007B216C0870206CF4
:102F4000401C2064B4F84600401EA4F846004FF030
:102F50000109FFF7B7F8A0EB0800B04202D3701CDC
:102F600001D018E0BEB1E08F0028A6D1B4F8460029
:102F70000028A2D142463146204602F077F910B12E
:102F8000012720202066012084F85D00002084F8BD
:102F90005C003846EEE60327F5E710B5401EB0F1B9
:102FA000807F01D3012010BD4FF0E02460610F212C
:102FB000601703F04DFB0020A06107202061002076
:102FC00010BD704770477047F0B590F83C20012A5B
:102FD0004AD0012280F83C20CA688B6822F44072F3
:102FE0001A434B6822F480621A430B6822F4006291
:102FF0001A430B6922F480521A434B6922F400529F
:103000001A430B6B22F480421A430B8B22F470227A
:1030100042EA0342154C03680026154DA34201D035
:10302000AB4203D1CF6922F080523A43A34201D090
:10303000AB4214D10F8D22F4700242EA07520F6A9C
:1030400022F080723A434F6A22F000723A43A34260
:1030500001D0AB4203D1C96A22F000520A435A643C
:1030600080F83C600020F0BD0220F0BD002C014043
:10307000003401407047704770470000F0B590F889
:103080003C20012A3AD0012580F83C50022280F8E9
:103090003D2003685A689C68194E1A4FB34201D00C
:1030A000BB4204D122F4700C4A6842EA0C02DFF8F9
:1030B00058C002EA0C02D1F800C04CEA020CC3F876
:1030C00004C00268B2420DD0B2F1804F0AD00F4B5B
:1030D0009A4207D00E4B9A4204D0BA4202D00D4B0E
:1030E0009A4204D1896824F080031943916080F8E2
:1030F0003D50002180F83C100846F0BD0220F0BD94
:10310000002C0140003401408FFFFFFD000400400F
:103110000008004000400140704710B5040003D093
:1031200094F83D0010B107E0012010BD002084F8A4
:103130003C00204600F022F8022084F83D00211DCA
:10314000206802F00BFC012084F8480084F83E005F
:1031500084F83F0084F8400084F8410084F842007D
:1031600084F8430084F8440084F8450084F846005D
:1031700084F8470084F83D00002010BD08B5204ABF
:1031800001682048914207D1016E41F40061016657
:10319000006E00F400601BE0B1F1804F11D01A4ABC
:1031A000914217D1816D41F002018165806D00224D
:1031B00000F00200009001211D20FEF7E9FF1D2014
:1031C00019E0816D41F001018165806D00F0010021
:1031D000009008BD0D4A9142FBD1816D41F0040180
:1031E0008165806D002200F00400009001211E2006
:1031F000FEF7CEFF1E20BDE80840FEF7BBBF000073
:10320000002C014000100240000400400008004073
:1032100090F83D10012901D001207047022180F86B
:103220003D100168CA6842F00102CA600068104996
:1032300088420ED0B0F1804F0BD00E49884208D0A2
:103240000D49884205D00D49884202D00C49884278
:1032500007D181680B4A1140062906D0B1F5803F9D
:1032600003D0016841F001010160002070470000B7
:10327000002C0140000400400008004000340140E0
:10328000004001400700010070B5044690F83C0082
:103290000025012814D0012684F83C60022084F81F
:1032A0003D0022689068364B184020F47F409060C3
:1032B000086870282ED010DC10F00F0F03D021E02A
:1032C0004FF0020070BD4FEA2012072A1AD2DFE841
:1032D00002F0525252524A3840002A4BC21A9842C7
:1032E00049D009DCB0F5805F0DD0B0F5005F1CD08F
:1032F000B0F1101F06D13EE0102A3CD0202A3AD06F
:10330000502A38D0012584F83D60002084F83C0024
:10331000284670BDCB68D1E90121206802F083FB0B
:103320002068816841F0770109E0CB68D1E901218B
:10333000206802F078FB2068816841F48041816058
:10334000E1E7CA684968206802F018FD502120684A
:1033500006E0CA684968206802F021FD6021206803
:1033600002F06CFBCFE7CA684968206802F006FDEE
:1033700040212068F4E7226801461046F0E700008B
:1033800088FFCEFF20001000704770B5044600682B
:1033900001694FF00005C943890715D4C168C943C5
:1033A000890711D4E91E0161012020772068806916
:1033B0008007204602D0FFF7E7FF04E000F026F97F
:1033C000204600F0E8F9257720680169C9434907DC
:1033D00017D4C168C943490713D46FF004010161D0
:1033E000022020772068806910F4407F204602D0B8
:1033F000FFF7CAFF04E000F009F9204600F0CBF91E
:10340000257720680169C943090716D4C168C943F3
:10341000090712D46FF008010161042020772068A9
:10342000C0698007204602D0FFF7AEFF04E000F03D
:10343000EDF8204600F0AFF9257720680169C9430F
:10344000C90617D4C168C943C90613D46FF0100167
:103450000161082020772068C06910F4407F204671
:1034600002D0FFF791FF04E000F0D0F8204600F012
:1034700092F9257720680169C943C90708D1C16855
:10348000C943C90704D1891E0161204600F002FA30
:1034900020680169C943090609D4C168C9430906FE
:1034A00005D46FF0800101612046FFF78BFD206895
:1034B0000169C943C90509D4C168C943090605D4CE
:1034C0006FF4807101612046FFF77BFD2068016980
:1034D000C943490609D4C168C943490605D46FF0F8
:1034E00040010161204600F0D6F920680169C94316
:1034F000890609D4C168C943890605D46FF0200143
:1035000001612046FFF75FFD20680169C943C902D8
:1035100009D4C168C943C90205D46FF4801101619F
:103520002046FFF7A8FD20680169C943890209D434
:10353000C168C943890205D46FF4001101612046B6
:10354000FFF798FD20680169C943490209D4C168A1
:10355000C943490205D46FF4800101612046FFF799
:103560008BFD20680169C94309020BD4C168C943B6
:10357000090207D46FF4000101612046BDE87040E4
:10358000FFF7CABD70BD000010B586B00446142117
:103590006846FCF775FE2368194C00211948022281
:1035A000A34213D1C36C43F00103C364C06C00F0A9
:1035B000010005904FF4E0600090CDE90121062064
:1035C000CDE9031069464FF0904014E0B3F1804F0D
:1035D00013D1C36C43F00203C364C06C00F002005B
:1035E00005904FF440600090CDE901210120CDE924
:1035F000031069460448FEF737FC06B010BD000012
:10360000002C01400010024000040048704770B5D3
:10361000044690F83C0000260D4601280BD00120FE
:1036200084F83C000C2A4AD007DC82B1042A20D05E
:10363000082A06D131E0022070BD102A53D0142A86
:1036400063D00126002084F83C00304670BD20681D
:1036500002F0FEF92068816941F00801816120686B
:10366000816921F004018161206881692A6911431F
:1036700011E0206802F03AFA2068816941F40061A3
:1036800081612068816921F480618161206881699C
:103690002A6941EA02218161D4E7206802F06EFACA
:1036A0002068C16941F00801C1612068C16921F049
:1036B0000401C1612068C1692A69114311E02068D1
:1036C00002F0A4FA2068C16941F40061C161206878
:1036D000C16921F48061C1612068C1692A6941EA38
:1036E0000221C161AEE7206802F0D8FA2068016DBE
:1036F00041F0080101652068016D21F004010165B8
:103700002068016D2A69114311E0206802F0FEFA79
:103710002068016D41F4006101652068016D21F4AC
:10372000806101652068016D2A6941EA0221016515
:1037300088E710B5040003D094F83D0010B107E00D
:10374000012010BD002084F83C00204600F022F843
:10375000022084F83D00211D206802F0FFF80120BE
:1037600084F8480084F83E0084F83F0084F8400064
:1037700084F8410084F8420084F8430084F844004F
:1037800084F8450084F8460084F8470084F83D003A
:10379000002010BD7047704730B50446022269B161
:1037A000042912D0082917D00C291CD0102921D0A7
:1037B00094F84300012824D0012030BD94F83E0045
:1037C0000128F9D184F83E201DE094F83F0001283B
:1037D000F2D184F83F2016E094F840000128EBD1A4
:1037E00084F840200FE094F841000128E4D184F8E7
:1037F000412008E094F842000128DDD184F84220FD
:1038000001E084F843200122206802F0FFF8194B00
:1038100020681949194A984209D0884207D0904235
:1038200005D0174DA84202D0164DA84203D1456CD1
:1038300045F400454564206898420CD0B0F1804FB3
:1038400009D0114B984206D0104B984203D08842C1
:1038500001D0904207D181680D4A1140062906D057
:10386000B1F5803F03D0016841F001010160002003
:1038700030BD0000002C01400034014000400140F8
:10388000004401400048014000040040000800409E
:10389000070001007047704790F88010012918D088
:1038A000012180F880102421C0F8841050F8641B96
:1038B0000A680B6823F001030B6022F0005100221C
:1038C000026050F8643C19602021016202771046C2
:1038D0007047022070477047704770B5044690F8F3
:1038E000800001281DD0012084F880002420C4F825
:1038F000840020680568026822F0010202602068E6
:10390000826822F060620A438260204602F05AFA1E
:10391000206805602020C4F88400002084F880001E
:1039200070BD022070BD70B5044690F8800001287B
:103930001DD0012084F880002420C4F88400206871
:103940000568026822F0010202602068826822F0A5
:1039500060420A438260204602F034FA2068056023
:103960002020C4F88400002084F8800070BD02206C
:1039700070BD7047704770B50446D0F88400D4F825
:103980008860216889684FF01005090618D521283C
:1039900016D12068083050E8001F21F0800140E86F
:1039A0000012002AF5D1A06F38B1FEF70BF820B154
:1039B000A06FFEF778F8202821D0204602F08AFB7D
:1039C00020688068400618D5222E16D1206808305D
:1039D00050E8001F21F0400140E80012002AF5D114
:1039E000E06F38B1FDF7EEFF20B1E06FFEF75BF856
:1039F000202804D0204602F043FB002070BDC4F80C
:103A00008C50032070BD70472DE9F04103680446D7
:103A1000D86919689A6840F60F0528424FF00005EA
:103A200009D186067ED501F0200602F080573E437C
:103A300078D0216F27E1A94EA94F16400F40374398
:103A400070D0C70709D0CF0507D501271F62D4F86A
:103A50008C3043F00103C4F88C3083070AD5D307B8
:103A600008D0276802233B62D4F88C3043F004036B
:103A7000C4F88C3043070AD5D30708D0276804233D
:103A80003B62D4F88C3043F00203C4F88C30030757
:103A90000CD501F02003334308D026680823336295
:103AA000D4F88C3043F00803C4F88C3003050BD5F0
:103AB0004B0109D526684FF400633362D4F88C308B
:103AC00043F02003C4F88C30D4F88C30002B3AD06B
:103AD000800609D501F0200002F08051084303D090
:103AE000216F09B120468847D4F88C002168896885
:103AF000490602D410F0280F27D0204602F0C0FA61
:103B00002068806840061BD52068083050E8001FF8
:103B100021F0400140E80012002AF5D1E06F78B1B1
:103B2000704900E017E08163E06FFDF780FF002837
:103B300009D0E06F816B00E02046BDE8F041084706
:103B40002046FFF760FFBDE8F0812046FFF75BFFEE
:103B5000C4F88C50F7E7E76E2026012F7ED1C70608
:103B60007CD5CF067AD51020186220688068400680
:103B700042D5E16F086840680004000CE3D0B4F857
:103B80005C208242DFD9A4F85E00086800688006E5
:103B90002BD4206850E8001F21F4807140E8001207
:103BA000002AF6D12068083050E8001F21F00101FA
:103BB00040E80012002AF5D12068083050E8001FC4
:103BC00021F0400140E80012002AF5D1C4F88860D5
:103BD000E566216851E8000F20F0100041E800027E
:103BE000002AF6D1E06FFDF7EDFEB4F85C00B4F802
:103BF0005E10401A81B22CE0B4F85C00B4F85E109C
:103C0000401A81B2B4F85E0000289CD000299AD0F6
:103C1000226852E8000F20F4907042E80003002B65
:103C2000F6D12E4BDB432068083050E8002F1A40B5
:103C300040E80027002FF6D1C4F88860E5662567C4
:103C4000226852E8000F20F0100042E80003002B29
:103C5000F6D12046FFF73FFE75E7FFE7C70209D51B
:103C6000570207D54FF4801018622046BDE8F04196
:103C7000FFF780BE03060AD501F0800302F40002BC
:103C8000134304D0616F00297FF456AF5BE742060F
:103C900011D54A060FD52046016851E8002F22F0C1
:103CA000400241E80023002BF6D1C0F8846045674C
:103CB00000F046F947E7020206D54A0004D520463F
:103CC000BDE8F041FFF755BEC001C5D50029C3DAF4
:103CD0002046BDE8F041FFF7FFBD000001000010E5
:103CE00020010004315F000810B5040003D0D4F8AF
:103CF000840010B107E0012010BD002084F880008E
:103D0000204600F027F82420C4F8840020680168C9
:103D100021F001010160204602F0F4F90128EBD006
:103D2000A06A10B1204602F06FF82068416821F4C3
:103D3000904141602068816821F02A0181602068FB
:103D4000016841F0010101602046BDE8104002F029
:103D5000BFB80000F0B597B00646142111A8FCF7D3
:103D60008FFA44216846FCF78BFA31493068884263
:103D70005CD101200024CDE900046846FEF7A0FADA
:103D800008B1FDF70DF82B48016E41F48041016642
:103D9000016E01F480411691C16C41F00201C164D1
:103DA000C06C11A900F002001690C02011900220F2
:103DB000CDE912040720CDE914401F48FEF754F85E
:103DC0001F4D1E48802728601820C5E90104C5E959
:103DD000034720206C61C5E9064028462C62FDF7A8
:103DE000C1FE08B1FCF7DCFFF567AE62144D134865
:103DF0006035143028601920686005F10801102032
:103E000081E891006C61AC61EC6128462C62FDF7A1
:103E1000A9FE08B1FCF7C4FFB567002211462520B2
:103E2000AE62FEF7B5F92520FEF7A4F917B0F0BD94
:103E30000038014000100240000400481C0002400D
:103E40005804002030B4D0F88830202B20D1E1B1C4
:103E5000DAB190F88030012B1AD0012380F880303D
:103E60000023C3660B4C0368A3420BD05B681B02A4
:103E700008D5046854E8003F43F0806344E8003507
:103E8000002DF6D130BC02F077BA012030BC70476B
:103E90000220FBE7008000407047704770B5044681
:103EA000D0F88400202842D171B36AB394F880001E
:103EB00001283CD0012084F880002165A4F854201A
:103EC000A4F856200025C4F88C502120C4F88400A2
:103ED000A06FD8B11749C162A16F17481346086394
:103EE000A16F16484863A06F85632668216D06F1AF
:103EF0002802A06FFDF796FE40B11020C4F88C0098
:103F000004F8805F20206060012070BD216840209F
:103F1000086284F880502068083050E8001F41F0A3
:103F2000800140E80012002AF5D1002070BD022077
:103F300070BD00003360000875600008455F000830
:103F400070477047FEE7000070B540F279402DEDF4
:103F5000048BF0EE418AB0EE609AB0EE408AFDF735
:103F60007FF85A49B5EEC08A0988401A00F58040AA
:103F7000C11700EB91416FF30D01401A82B2F1EECF
:103F800010FA534802DB2B21817003E02D21817050
:103F9000B1EE488A4FF47A74FDEEC81A6425F2EE49
:103FA000040A11EE901A28EE200A91FBF4F1303148
:103FB000C17011EE901ABDEEC00A91FBF5F30A2113
:103FC00093FBF1F601FB16333033037111EE903A97
:103FD00093FBF1F393FBF1F601FB1633303343719E
:103FE00011EE903A93FBF1F601FB163330338371F7
:103FF00010EE103ABDEEC90A93FBF1F601FB163341
:104000003033037210EE103A93FBF1F33033037345
:1040100010EE103A29EE200A93FBF1F601FB16335D
:10402000BDEEC00A3033437310EE103ABDEEE80A1D
:1040300093FBF1F601FB16333033C37310EE103AE5
:1040400093FBF1F33033C37410EE103A28EEA00A5C
:1040500093FBF1F601FB1633BDEEC00A3033037556
:1040600010EE103A93FBF1F601FB163330338375F3
:1040700042F21073B2FBF3F330338376B2FBF4F306
:10408000B3FBF1F401FB14333033C376B2FBF5F329
:10409000B3FBF1F401FB143330330377B2FBF1F3DC
:1040A000B3FBF1F401FB143330334377B2FBF1F38C
:1040B00001FB1321303181772122BDEC048BBDE857
:1040C000704003490348FFF7E9BE0000C20000202A
:1040D00090000020C803002030B50A4D00234FF4A3
:1040E0007A7408B12B6000E02C600648001F09B10B
:1040F000036000E004600348001D0AB1036030BDA6
:10410000046030BD382C014000EB8100006E00F0EF
:10411000F84070478068C0F3C00070478068C0F303
:10412000800070478068C0F380007047C06810F45A
:10413000406F01D00020704701207047042303EA3C
:10414000D15310B518444369C1F3045107248C407E
:10415000A3438A401343436110BD00EB8100016E0D
:1041600021F000411143016670470000F0B5374867
:10417000E9B00025058045804FF400513448FDF733
:1041800097FF00285FD13349012008704FF4D271A6
:104190006846FCF775F80024012221462046FFF707
:1041A0009BFFC820C1060864C863002001F09CFA88
:1041B0006420FDF77DFD00F0DFFF012001F094FA9F
:1041C0006420FDF775FD00F0D7FF022001F08CFAA6
:1041D0006420FDF76DFD00F0CFFF032001F084FAAD
:1041E0006420FDF765FD00F0C7FF184F6E46BF1D48
:1041F00004F0030001F078FA6420FDF759FD00F0A7
:10420000BBFF388826F81400641CE4B2C92CEFD335
:104210001E21ADF8981196200A21ADF892013220A6
:10422000ADF89A11ADF89C11ADF894511621ADF886
:10423000A051ADF89601ADF89E11ADF8A201D221C2
:104240006846FCF753FF69B0F0BD0000BC000020D9
:1042500000040048B100002070B58CB00024089420
:104260000994202168460A94FCF70AF823484FF085
:10427000A041012501604FF44031C0E9011400F173
:1042800010010426C46081E870000477447702219D
:10429000016280F82440C462046380F83840C4633B
:1042A00080F84040FDF7C2F908B1FCF779FD08A994
:1042B00012480894FCF73EFF08B1FCF771FD104866
:1042C00000900620CDE901057F200594CDE9030685
:1042D00069460A48FCF79AFF08B1FCF761FD0948F6
:1042E00000900C20019069460448FCF78FFF0028DD
:1042F00001D0FCF755FD0CB070BD0000D0000020CF
:104300000800900C1000C010154808B5816C41F0F1
:1043100004018164816C01F004010091816C41F021
:1043200001018164806C002200F0010000901146C0
:104330000B20FDF72DFF0B20FDF71CFF002211467F
:104340000C20FDF725FF0C20FDF714FF002211467D
:104350000D20FDF71DFFBDE808400D20FDF70ABF49
:104360000010024030B587B014216846FBF788FF83
:104370002048C16C41F02001C164C16C01F02001F2
:104380000591C16C41F00101C164C16C01F00101F2
:104390000591C16C41F00201C164C06C4FF09045C1
:1043A00000F002000590002248F2F0012846FDF7D7
:1043B00084FEF0200124CDE900040320CDE9024071
:1043C00069462846FDF750FD42F2070000900020A4
:1043D000CDE9010469460848FDF746FDE003CDE953
:1043E00000040220CDE9020469462846FDF73CFDA1
:1043F00007B030BD0010024000040048124810B55C
:10440000104901604FF48271416000214FF47062E5
:10441000C0E902120222026101224261520282615B
:104420001022C0E9072107224162C0E90A12016394
:104430004163FEF7D9FB002803D0BDE81040FCF72C
:10444000AFBC10BD003001409C01002010B59CB0F5
:10445000002419941A9417941894149415941C21F8
:104460000DA81694FBF70CFF34216846FBF708FFF4
:1044700033483249C0E900144FF47A71C0E902416F
:10448000046144618461FEF748FE08B1FCF788FCD2
:104490004FF48050179017A92948FEF7F5FE08B190
:1044A000FCF77EFC2648FFF744F908B1FCF778FCDE
:1044B0001494159414A922481694FEF7DFFD08B150
:1044C000FCF76EFC6020CDE90D040F94109411945C
:1044D000129400220DA91A481394FFF798F808B116
:1044E000FCF75EFC04220DA91548FFF790F808B10F
:1044F000FCF756FC08220DA91148FFF788F808B10F
:10450000FCF74EFC00944FF40050CDE904400394B6
:104510000003CDE9084001940294069407940A949C
:104520000B94694606480C94FEF74EFD08B1FCF763
:1045300037FC0348FFF728F81CB010BD002C0140E1
:104540000002002010B58EB000240794089409944E
:104550000A940B940C941C2168460D94FBF790FE72
:1045600021484FF08041C0E9001440F2E731C0E932
:10457000024104618461FEF7D0FD08B1FCF710FC34
:104580004FF48050079007A91748FEF77DFE08B149
:10459000FCF706FC1448FFF7CCF808B1FCF700FC68
:1045A0000B940BA910480D94FEF768FD08B1FCF7B9
:1045B000F7FB6020CDE900040294082269460A480E
:1045C0000494FFF724F808B1FCF7EAFB0C226946D3
:1045D0000548FFF71CF808B1FCF7E2FB0248FEF7BC
:1045E000D3FF0EB010BD00004C02002010B588B003
:1045F00000241748009401940294039404940594B1
:10460000124906940160A921C0E901146321C0E99F
:1046100003148461FEF781FD08B1FCF7C1FB4FF480
:104620008050009069460A48FEF72EFE08B1FCF75C
:10463000B7FB049404A906480694FEF71FFD002862
:1046400001D0FCF7ADFB08B010BD00000004004035
:104650009802002010B588B00024174800940194F7
:104660000294039404940594124906940160A921CC
:10467000C0E9011440F2E731C0E903148461FEF798
:104680004CFD08B1FCF78CFB4FF48050009069465C
:104690000948FEF7F9FD08B1FCF782FB049404A970
:1046A00005480694FEF7EAFC002801D0FCF778FBE9
:1046B00008B010BD00080040E4020020184810B502
:1046C000164901604FF4E1314160002181600C2204
:1046D000C160C0E904128161C1610162416281620D
:1046E000FFF702FB08B1FCF75BFB00210C48FFF76A
:1046F0001AF908B1FCF754FB00210948FFF7EDF85F
:1047000008B1FCF74DFB0648FFF7C6F8002803D0B8
:10471000BDE81040FCF744BB10BD0000003801406C
:10472000C80300202DE9F05FDFF8E8A3FA4F2DED74
:10473000048B9AF800009FEDF99BFA4E0025FA4C85
:1047400050285AD19AF80900524645287ED1756002
:10475000B5609178F54B30395943D378284640F607
:10476000354C13FB0CF301EB4311137940F2712C20
:1047700013FB0CF301EB031153799AF8018003EB5F
:10478000430CCCEBC31301EBC3019379B8F12B0FAE
:1047900003EBC30C0CEB031301EB8301D37903EBA5
:1047A000830301EB4301137A0B44E1491944234687
:1047B000D3E91292D3E910C303D0B8F12D0F0BD077
:1047C00014E0BCEB010C63EB0003C4E910C3B9EBCC
:1047D000010162EB000207E01CEB010C4341C4E95C
:1047E00010C319EB01014241C4E9121230701021CB
:1047F000C848FBF745FD84ED0E9B9AF80000D046B3
:1048000056282ED198F80610404645297ED1B5602D
:1048100081784279303901EB4103C3EBC11102EBDE
:10482000C101C278642312FB03F2037998F80100F6
:1048300003EB830302EB43021144A1F5A051D039ED
:1048400089B22B2803D02D2803D004E030E1716019
:1048500001E0484270601021AE48FBF711FD84ED85
:104860000E9B98F80000532821D198F80410404678
:1048700045294BD175608178C278303901EB8101CF
:104880006FF02F0303EB410198F80100114489B246
:104890002B2802D02D2802D003E0B16001E048426D
:1048A000B06010219B48FBF7EBFC84ED0E9B98F861
:1048B000000052281FD198F801104046452925D103
:1048C0008178532922D198F8050045281ED17560BA
:1048D000B560D4E912010022C4E91222D4E91032F1
:1048E000181A62EB0102C4E9100210218948FBF793
:1048F000C7FC84ED0E9B98F80000DFF838B2C14683
:104900004C287CD1484699F8041000E080E0452905
:104910007ED17560B5604178C278303999F802006F
:1049200001EBC10303EB011100EB800002EB8101FD
:1049300007EB400008444FF4B47190FBF1F201FB27
:10494000120840F27940FCF78BFBFBF753FE41EC79
:10495000180B08F1B400FBF73CFE9FED771B53ECFE
:10496000112BFBF7B1FD9FED761B53EC112BFBF7E1
:1049700039FD53EC182BFBF78EFCFBF75CFEC117DF
:1049800000EB91416FF30D01411ACB17C4E90A13F3
:10499000BBF800C0DFF8B081B1EB0C0263EB05009F
:1049A000C4E91020B2EB080870F1FF3807DACCF543
:1049B000804818EB010143EBE87CC4E9101CD4E902
:1049C000103C4FF400584FF00001B8EB030371EBBB
:1049D0000C0105DA5D49511840F1FF30C4E91010AF
:1049E00004F14001E06C0EC959185041C4E912109D
:1049F000357010214748FBF743FC84ED0E9B99F876
:104A00000000C8464F2824D1404698F8051000E021
:104A10007EE045297CD17560B560817802793039B6
:104A200001EBC10303EB011102EB8101C27898F89D
:104A3000010002EB820207EB4202114489B22B28EB
:104A40000CD04842F06010213248FBF719FC84ED8D
:104A50000E9B98F80000552802D025E0F160F2E79F
:104A600098F801104046502952D1817844294FD1FD
:104A7000C17841294CD10179542949D14179412941
:104A800046D198F80600452842D17560B560BBF85C
:104A90000000254901F054FD10211E48FBF7F0FBF2
:104AA00084ED0E9B00F0C2F998F8000050282FD139
:104AB0009AF80180B8F1490F10D19AF802005146D6
:104AC00044280BD1087A452808D1C8789FED208B5F
:104AD000492804D050285DD0412876D0CAE04879D2
:104AE000CA79303800EBC00303EB001002EB800002
:104AF0008A799AF8041002EB820207EB4202104412
:104B000080B2502928D0492930D0442938D0B1E08A
:104B100031E1000040070020F0FDFFFF0000000031
:104B20000000000080000020C006002040420F006E
:104B3000B09EAEFFC2000020000000000080764062
:104B4000000000000000D04000E0FFFF00C0FFFFB9
:104B50000000000000002440FBF74CFD53EC182B34
:104B6000FBF7B2FCFBF7CAFD206583E0FBF742FDD3
:104B700053EC182BFBF7A8FCFBF7C0FD606579E050
:104B8000FBF738FD53EC182BFBF79EFCFBF7B6FD4B
:104B9000A0656FE04879CA79303800EBC00303EBB9
:104BA000001002EB80008A799AF8041002EB82026E
:104BB00007EB4202104480B29FED718B502905D063
:104BC00049290DD0442915D054E01DE0FBF712FD12
:104BD00053EC182BFBF778FCFBF790FDE06549E000
:104BE000FBF708FD53EC182BFBF76EFCFBF786FD7B
:104BF00020663FE0FBF7FEFC53EC182BFBF764FC50
:104C0000FBF77CFD606635E04879CA79303800EB07
:104C1000C00303EB001002EB80008A799AF80410BD
:104C200002EB820207EB4202104480B2502904D00A
:104C300049290CD0442914D01CE0FBF7DBFC53ECD1
:104C4000182BFBF741FCFBF759FDA06612E0FBF7C0
:104C5000D1FC53EC182BFBF737FCFBF74FFDE0665C
:104C600008E0FBF7C7FC53EC182BFBF72DFCFBF718
:104C700045FD20679AF80910504654297BD1817B65
:104C8000452978D17560B56081783F4A3039514304
:104C9000C278B14640F6354312FB03F201EB4211F4
:104CA000027940F2712312FB03F201EB0211427907
:104CB000B8F12B0F02EB4203C3EBC21201EBC201AE
:104CC000827902EBC20303EB021201EB8201C2798B
:104CD00002EB820201EB4201027A0A442B491144A1
:104CE00003D0B8F12D0F05D00BE0D4E906325918E6
:104CF0006A4104E0D4E90632591A62EB0502C4E9BC
:104D00000612817A427B303901EB4103C3EBC111BA
:104D100002EBC101C27A642312FB03F29AF80C0081
:104D200000EB800002EB40000844A0F5A050D4E95D
:104D30000423D038C11780185941C4E9040107463B
:104D40000E46D4E90601FBF72EFC08EE100A3846A1
:104D50003146FBF728FC00EE100A10210C48C8EE83
:104D6000000ABDEEE00A84ED080A89F80050FBF75E
:104D700087FA84ED0E9BBDEC048BBDE8F09F00002C
:104D80000000000000408F4040420F00B09EAEFF88
:104D900040070020FEE7FEE770B51F4D1F48204C7E
:104DA000E96F0388C81A43F698216060884202DDE3
:104DB000A0F58040606043F69821C84202DA00F511
:104DC00080406060D5E91061C21736185141C5E9CD
:104DD0001061D5E9006130185141EB67C5E9000168
:104DE0002278521CD2B222700A2A13D1FBF70FFC90
:104DF0009FED0C1B53EC112BFBF766FBC5E90C0177
:104E000000F0EEF800F0DAFBFBF7A0FE0020C5E9A9
:104E10000000207070BD0000C0060020C20000200D
:104E20003800002000000000000024402DE9F0417F
:104E300040F279402DED048BFCF712F95D4C002512
:104E4000B3EE0E0AC4E90A0584ED020AA5674FF421
:104E500061706567FCF704F9FBF7CCFB9FED568B9F
:104E600053EC182BFBF730FBFBF748FC206540F2B6
:104E70008530FCF7F5F8FBF7BDFB53EC182BFBF77F
:104E800023FBFBF73BFC606540F28630FCF7E8F85B
:104E9000FBF7B0FB53EC182BFBF716FBFBF72EFCD4
:104EA000A06540F28730FCF7DBF8FBF7A3FB9FED32
:104EB000449B53EC192BFBF707FBFBF71FFCE0654A
:104EC0004FF46270FCF7CCF8FBF794FB53EC192B12
:104ED000FBF7FAFAFBF712FC206640F28930FCF788
:104EE000BFF8FBF787FB53EC192BFBF7EDFAFBF749
:104EF00005FC606640F28A30FCF7B2F8FBF77AFBFB
:104F000053EC182BFBF7E0FAFBF7F8FBA06640F236
:104F10008B30FCF7A5F8FBF76DFB53EC182BFBF778
:104F2000D3FAFBF7EBFBE0664FF46370FCF798F8FD
:104F3000FBF760FB53EC182BFBF7C6FAFBF7DEFB25
:104F400020670020C4E90000C4E904009FED1E0BA7
:104F500084ED0E0B00F010F91D4800260288E26770
:104F6000D4E90A300746991A60EB0500C4E91266D5
:104F7000184DC4E910104D1B70F1FF3506DAC2F56B
:104F80008045EB1847EBE572C4E91032D4E91036DE
:104F90004FF400554FF00002ED1AB24105DA0E4A07
:104FA000891840F1FF30C4E91010BDEC048BBDE856
:104FB000F0810000C0060020000000000000244036
:104FC0000000000000408F400000000000000000D2
:104FD000C200002000E0FFFF00C0FFFF704700009C
:104FE0002DE9F0415D4C00212DED048BD4E9100238
:104FF000404261EB02015A4F4FF4FA62821A71F19A
:105000000002C7E9040156DA564BDA129FED569BAF
:105010009FED578B181A8A414DDA206EFBF72AFB59
:1050200094ED0E1B53EC112BFBF7DCF953EC192B11
:10503000FBF734FB06D2D7E904120023591A73EBAD
:1050400002002CDB206EFBF715FB94ED0E1B53ECDE
:10505000112BFBF7C7F953EC182BFBF737FB02D2E8
:10506000786900281BDB206EFBF704FB94ED0E1B18
:1050700053EC112BFBF7B6F953EC192BFBF726FB7E
:1050800019D8206EFBF7F6FA94ED0E1B53EC112B9A
:10509000FBF7A8F953EC182BFBF700FB0BD8D7E96B
:1050A0000401FBF7B4FA94ED0E1B53EC112BFBF744
:1050B000F2F8C4E90E0107F108027D694CCAB01A82
:1050C00065EB0301FBF76FFA00EE100AD4ED190A45
:1050D00020EE200A10EE100AFBF7CCFA41EC190B77
:1050E000206EFBF7C7FA94ED0E1B53EC112BFBF768
:1050F00079F941EC180B30462946FBF754FA00EEDB
:10510000100AD4ED170A20EE200A10EE100AFBF761
:10511000B1FA53EC182BFBF7BEF853EC192BFBF745
:10512000BAF8FBF7EBFAA060C7E902650020D6F1F8
:105130006401A84105DB6FF06300301A75F1FF30A0
:1051400003DA00221146012002E00022012110466C
:10515000BDEC048BBDE8F041FEF7BEBFC0060020E9
:105160003800002030F8FFFF0000000000003EC0C3
:105170000000000000003E4010B500F009F80348B0
:105180000249891D4088088010BD0000BC00002035
:105190002DE9FE4F4FF40340ADF804004FF40440F6
:1051A0000024DFF8C080ADF806000DF1040A0DF10F
:1051B000080B651E4FF001094FF400464FF0904771
:1051C000002231463846FCF778FF012302AA01A9E4
:1051D00025480095FDF7B0FD012231463846FCF721
:1051E0006CFF002231463846FCF767FF01230BF1C4
:1051F00002020AF102011C480095FDF79DFD012203
:1052000031463846FCF759FFBDF80800BDF80A10D2
:10521000C0B260F31F2100224646A8F800101046D5
:105220004FEA090303FA00F7394201D0521CD2B207
:10523000401CC0B21028F5D3D00708D00020641C51
:10524000E4B288F80500032CB6D3BDE8FE8FC1F3A5
:105250008D0286F805907280C1F3400188F8041031
:10526000F3E70000BC0000209C010020F8B51546C3
:105270000E460B460092044600224FF4C05100F047
:1052800019F888B93346002280212046009500F0A5
:1052900081F848B9334600224FF4C061204600959A
:1052A00000F008F8002804D0206E40F020002066AE
:1052B0000320F8BD2DE9FE4F4FF0000A984617462F
:1052C0000E4604460C9D8DF804A0FCF7FBFE411B26
:1052D000A8EB0105FCF7F6FE814620684FF4C06B91
:1052E0000C3002902A480068C0EBC00000EB800040
:1052F000000D6843009043E05E4506D12FB9029847
:1053000000788DF804009DF80400B8F1FF3F37D015
:10531000FCF7D8FEA0EB0900A84203D215B1009813
:1053200058B32BE02068416821F0E00141606068DB
:10533000B0F5827F0BD1A068B0F5004F02D0B0F578
:10534000806F04D12068016821F040010160A06AEB
:10535000B0F5005F09D12068016821F400510160B7
:105360002068016841F400510160012084F85D006B
:1053700084F85CA00320BDE8FE8F0025401E00904D
:10538000206880683040B842B6D10020F3E70000C2
:10539000300000202DE9F8431E4691468846044619
:1053A000089DFCF78FFE401B351AFCF78BFE074665
:1053B00025480068C0F3CB30684338E0701C37D014
:1053C000FCF780FEC01BA84203D215B1009860B361
:1053D0002CE02068416821F0E00141606068B0F590
:1053E000827F0BD1A068B0F5004F02D0B0F5806F7E
:1053F00004D12068016821F040010160A06AB0F585
:10540000005F09D12068016821F400510160206823
:10541000016841F400510160012084F85D00002022
:1054200084F85C000320BDE8F8830025401E00904E
:105430002068816838EA010004D000214945BDD1C7
:105440000020F0E70121F9E730000020704700005C
:105450002DE9F0473D4852224FF0C80801883D4CE5
:10546000B1FBF2F13A4A814612880A44B2FBF8F3E2
:1054700008FB1326751E761C36E0681CFBF7DCFD66
:1054800007462846FBF7D8FD874213D92846FBF785
:10549000D3FDB9F800104F46884224D8681CFBF7AA
:1054A000CBFD39881DE0C83595FBF8F108FB11509C
:1054B00020701BE0681CFBF7BFFD07462846FBF782
:1054C000BBFD87420FD22846FBF7B6FDB9F80010A6
:1054D0004F46884207D8681CFBF7AEFD398800F5B7
:1054E00080408842DFD26D1CB542C6DD1949207864
:1054F000143131F81010401C6160FBF79DFD05462A
:105500002078FBF799FD854205D92078FBF794FDBB
:10551000B9F800100AE0B9F8000043F64871884273
:1055200020784D4604D9FBF787FD2988081A05E045
:10553000FBF782FD2988C0F58040084461680002BD
:1055400090FBF1F02081BDE8F0870000C200002050
:10555000340000201805002070B50C46051E4FF0E1
:10556000904606DD012220213046FCF7A6FD0022F0
:1055700006E04542002220213046FCF79EFD012234
:1055800010213046FCF799FD002C06DD0122802118
:105590003046FCF792FD002206E0644200228021A2
:1055A0003046FCF78AFD012240213046FCF785FD9C
:1055B0004FF080400564C46370BD000070B5444C7A
:1055C000424D2DED068BA068FBF754F894ED0C1BB3
:1055D00053EC112BFAF700FF41EC100B85ED060B95
:1055E00095ED081B53EC112BFAF7F6FEFBF786F846
:1055F00038490861606DFBF73DF895ED0A1B53ECE7
:10560000112BFAF7EFFE9FED341B53EC112BFBF738
:105610005DF81BD2606DFBF72DF895ED0A1B53EC7E
:10562000112BFAF7DFFE9FED2E1B53EC112BFBF72E
:1056300035F80BD295ED060B53EC102B95ED0A0BBC
:1056400051EC100BFAF727FEC5E90A0195ED080B9E
:1056500095ED068B53EC102B51EC180BFAF7BCFEB2
:1056600041EC190BA06DFBF705F853EC192BFAF779
:10567000B9FE41EC1A0B606DFAF7FCFF95ED0A1BC1
:1056800053EC112BFAF7AEFE41EC190B206DFAF733
:10569000F1FF53EC182BFAF7A5FE53EC192BFAF790
:1056A000FAFD53EC1A2BFAF7F6FDFAF7C4FF4FF4A4
:1056B000FA716067884202DC4942884200DA616719
:1056C00085ED088BBDEC068B70BD00003800002016
:1056D000C0060020180500200000000000C072C0B5
:1056E0000000000000C0724070B5244E04463078BF
:1056F000844231D04FF0904534B1012C0BD0022CB4
:1057000015D0032C29D026E0012210212846FCF7D1
:10571000D4FC002211E0002210212846FCF7CDFC29
:10572000002220212846FCF7C8FC01220AE00022C2
:1057300010212846FCF7C1FC012220212846FCF755
:10574000BCFC002240212846FCF7B7FC0022802147
:105750002846FCF7B2FC347070BD002210212846A8
:10576000FCF7ABFC002220212846FCF7A6FC002217
:1057700040212846FCF7A1FC0122E8E7C8000020F0
:10578000FCF7A6BC10B594B038216846FAF778FD4E
:1057900014210EA8FAF774FD0020FCF72BFD012060
:1057A00000900004019002200324CDE90704552154
:1057B000CDE90A100C900D9009946846FDF70EF89B
:1057C00008B172B6FEE70F20CDE90E04002010905C
:1057D0001190129004210EA8FCF7B6FE002801D00B
:1057E00072B6FEE714B010BD0248016841F47001C2
:1057F0000160704788ED00E010B50348FDF7C5FD76
:10580000BDE81040FFF7C8BA980200202DE9F05F0C
:105810004748FDF7BAFDDFF81CB1474C474ABBF8D3
:1058200000100027491C89B2ABF800108A46D4E961
:1058300010011268D317851A61EB0301C4E91051F6
:10584000D4E91260B6EB020C60EB0300C4E912C0AD
:10585000D4E904233E46BF1A9E4104DA521E43F1A6
:10586000FF33C4E90423D4E9067357EA030221D0C5
:10587000226A3E00904600D57E42002A00DA52425B
:10588000964206DDB7EB080663EBE873C4E90663EE
:1058900003E000222762C4E90622226AD317AD1A68
:1058A00061EB0301C4E91051BCEB020160EB0300A2
:1058B000C4E912105D46BAF1190F2FD12048D4E97E
:1058C00010320068C1171B1A62EB0102C4E91032E2
:1058D000D4E91232181A62EB0102C4E91202FBF792
:1058E000AFF894ED0C0B9FED171B51EC100B53EC24
:1058F000112BFAF777FD9FED151B53EC112BFAF7DF
:1059000071FDFAF7FBFE00EE100A124890ED021A44
:10591000D0ED010AFEF718FB002028800E48007821
:10592000002802D06888401E6880BDE8F09F000013
:10593000E402002000000020C006002084000020B7
:105940008800002000000000804F2241000000007D
:105950000000103F50070020B10000202DE9F04367
:105960000268234B234D244E244C4FF0804998422B
:1059700007D0484505D0A84203D0B04201D0A0428C
:1059800003D122F070074A683A431D4FDFF874C014
:10599000DFF8748098420DD048450BD0A84209D05A
:1059A000B04207D0A04205D0B84203D0604501D034
:1059B000404503D122F44075CA682A434D6922F05C
:1059C00080022A4302608A68C2620A688262984240
:1059D00007D0A04205D0B84203D0604501D0404571
:1059E00001D10969016301214161BDE8F083000033
:1059F000002C014000040040000800400034014039
:105A000000400140004401400048014010B501F051
:105A10001F030121046A99408C430462016A9A4081
:105A20001143016210BD10B5846842EA032224F4D8
:105A30007F440A432243826010BD00008268034B0A
:105A40001A400A4342F00701816070478FFFCFFF81
:105A50002DE9F043026A22F001020262056A4368FE
:105A600082691C4C25F0020522400C6822F00302DA
:105A700014438A68194E2A43174D194FDFF864C042
:105A8000DFF86490A84207D0B04205D0B84203D0F6
:105A9000604501D0484506D122F00808CA6842EAAC
:105AA000080222F00402A84207D0B04205D0B84252
:105AB00003D0604501D0484505D14D6923F44073BA
:105AC0001D438B692B4343608461496841630262D3
:105AD000BDE8F0838FFFFEFF002C01400034014041
